{
  "contractName": "Diplome",
  "abi": [
    {
      "inputs": [
        {
          "internalType": "string",
          "name": "_nom",
          "type": "string"
        },
        {
          "internalType": "string",
          "name": "_niveau",
          "type": "string"
        },
        {
          "internalType": "string",
          "name": "_ref",
          "type": "string"
        }
      ],
      "stateMutability": "nonpayable",
      "type": "constructor"
    },
    {
      "inputs": [],
      "name": "niveau",
      "outputs": [
        {
          "internalType": "string",
          "name": "",
          "type": "string"
        }
      ],
      "stateMutability": "view",
      "type": "function"
    },
    {
      "inputs": [],
      "name": "nom",
      "outputs": [
        {
          "internalType": "string",
          "name": "",
          "type": "string"
        }
      ],
      "stateMutability": "view",
      "type": "function"
    },
    {
      "inputs": [],
      "name": "ref",
      "outputs": [
        {
          "internalType": "string",
          "name": "",
          "type": "string"
        }
      ],
      "stateMutability": "view",
      "type": "function"
    },
    {
      "inputs": [],
      "name": "structIt",
      "outputs": [
        {
          "components": [
            {
              "internalType": "string",
              "name": "nom",
              "type": "string"
            },
            {
              "internalType": "string",
              "name": "niveau",
              "type": "string"
            },
            {
              "internalType": "string",
              "name": "ref",
              "type": "string"
            }
          ],
          "internalType": "struct DiplomeStruct",
          "name": "",
          "type": "tuple"
        }
      ],
      "stateMutability": "view",
      "type": "function"
    }
  ],
  "bytecode": "0x60806040523480156200001157600080fd5b5060405162000a0538038062000a058339818101604052810190620000379190620001ad565b82600090805190602001906200004f9291906200008b565b508160019080519060200190620000689291906200008b565b508060029080519060200190620000819291906200008b565b505050506200037f565b8280546200009990620002eb565b90600052602060002090601f016020900481019282620000bd576000855562000109565b82601f10620000d857805160ff191683800117855562000109565b8280016001018555821562000109579182015b8281111562000108578251825591602001919060010190620000eb565b5b5090506200011891906200011c565b5090565b5b80821115620001375760008160009055506001016200011d565b5090565b6000620001526200014c8462000282565b6200024e565b9050828152602081018484840111156200016b57600080fd5b62000178848285620002b5565b509392505050565b600082601f8301126200019257600080fd5b8151620001a48482602086016200013b565b91505092915050565b600080600060608486031215620001c357600080fd5b600084015167ffffffffffffffff811115620001de57600080fd5b620001ec8682870162000180565b935050602084015167ffffffffffffffff8111156200020a57600080fd5b620002188682870162000180565b925050604084015167ffffffffffffffff8111156200023657600080fd5b620002448682870162000180565b9150509250925092565b6000604051905081810181811067ffffffffffffffff8211171562000278576200027762000350565b5b8060405250919050565b600067ffffffffffffffff821115620002a0576200029f62000350565b5b601f19601f8301169050602081019050919050565b60005b83811015620002d5578082015181840152602081019050620002b8565b83811115620002e5576000848401525b50505050565b600060028204905060018216806200030457607f821691505b602082108114156200031b576200031a62000321565b5b50919050565b7f4e487b7100000000000000000000000000000000000000000000000000000000600052602260045260246000fd5b7f4e487b7100000000000000000000000000000000000000000000000000000000600052604160045260246000fd5b610676806200038f6000396000f3fe608060405234801561001057600080fd5b506004361061004c5760003560e01c806321a78f68146100515780636bd1deab1461006f578063cceae5611461008d578063f94e1373146100ab575b600080fd5b6100596100c9565b604051610066919061052a565b60405180910390f35b610077610157565b604051610084919061052a565b60405180910390f35b6100956101e5565b6040516100a2919061052a565b60405180910390f35b6100b3610273565b6040516100c0919061054c565b60405180910390f35b600280546100d6906105ce565b80601f0160208091040260200160405190810160405280929190818152602001828054610102906105ce565b801561014f5780601f106101245761010080835404028352916020019161014f565b820191906000526020600020905b81548152906001019060200180831161013257829003601f168201915b505050505081565b60018054610164906105ce565b80601f0160208091040260200160405190810160405280929190818152602001828054610190906105ce565b80156101dd5780601f106101b2576101008083540402835291602001916101dd565b820191906000526020600020905b8154815290600101906020018083116101c057829003601f168201915b505050505081565b600080546101f2906105ce565b80601f016020809104026020016040519081016040528092919081815260200182805461021e906105ce565b801561026b5780601f106102405761010080835404028352916020019161026b565b820191906000526020600020905b81548152906001019060200180831161024e57829003601f168201915b505050505081565b61027b610439565b604051806060016040528060008054610293906105ce565b80601f01602080910402602001604051908101604052809291908181526020018280546102bf906105ce565b801561030c5780601f106102e15761010080835404028352916020019161030c565b820191906000526020600020905b8154815290600101906020018083116102ef57829003601f168201915b5050505050815260200160018054610323906105ce565b80601f016020809104026020016040519081016040528092919081815260200182805461034f906105ce565b801561039c5780601f106103715761010080835404028352916020019161039c565b820191906000526020600020905b81548152906001019060200180831161037f57829003601f168201915b50505050508152602001600280546103b3906105ce565b80601f01602080910402602001604051908101604052809291908181526020018280546103df906105ce565b801561042c5780601f106104015761010080835404028352916020019161042c565b820191906000526020600020905b81548152906001019060200180831161040f57829003601f168201915b5050505050815250905090565b60405180606001604052806060815260200160608152602001606081525090565b60006104658261056e565b61046f8185610579565b935061047f81856020860161059b565b6104888161062f565b840191505092915050565b600061049e8261056e565b6104a8818561058a565b93506104b881856020860161059b565b6104c18161062f565b840191505092915050565b600060608301600083015184820360008601526104e9828261045a565b91505060208301518482036020860152610503828261045a565b9150506040830151848203604086015261051d828261045a565b9150508091505092915050565b600060208201905081810360008301526105448184610493565b905092915050565b6000602082019050818103600083015261056681846104cc565b905092915050565b600081519050919050565b600082825260208201905092915050565b600082825260208201905092915050565b60005b838110156105b957808201518184015260208101905061059e565b838111156105c8576000848401525b50505050565b600060028204905060018216806105e657607f821691505b602082108114156105fa576105f9610600565b5b50919050565b7f4e487b7100000000000000000000000000000000000000000000000000000000600052602260045260246000fd5b6000601f19601f830116905091905056fea264697066735822122059f24052266d4ad2077f88866392eaef81f9652051aa8f628965f68589ca565864736f6c63430008000033",
  "immutableReferences": {},
  "source": "// SPDX-License-Identifier: MIT\r\npragma solidity ^0.8.0;\r\n\r\nstruct DiplomeStruct {\r\n  string nom;\r\n  string niveau;\r\n  string ref;\r\n}\r\n\r\nstruct StudentStruct {\r\n  string cin;\r\n  string university;\r\n  DiplomeStruct[] diplomeStructs;\r\n}\r\n\r\ncontract Diplome {\r\n  string public nom;\r\n  string public niveau;\r\n  string public ref;\r\n\r\n  constructor(string memory _nom, string memory _niveau, string memory _ref) {\r\n    nom = _nom;\r\n    niveau = _niveau;\r\n    ref = _ref;\r\n  }\r\n\r\n  function structIt() public view returns (DiplomeStruct memory) {\r\n    return DiplomeStruct(nom, niveau, ref);\r\n  }\r\n}\r\n\r\ncontract Student {\r\n  string public cin;\r\n  string public university;\r\n  Diplome[] public diplomes;\r\n\r\n  constructor(string memory _cin, string memory _university) {\r\n    cin = _cin;\r\n    university = _university;\r\n  }\r\n\r\n  function structIt() public view returns (StudentStruct memory) {\r\n    DiplomeStruct[] memory diplomeStructs1 = new DiplomeStruct[](\r\n      diplomes.length\r\n    );\r\n    for (uint256 i = 0; i < diplomes.length; i++) {\r\n      diplomeStructs1[i] = diplomes[i].structIt();\r\n    }\r\n    return StudentStruct(cin, university, diplomeStructs1);\r\n  }\r\n\r\n  function getInformations()\r\n    public\r\n    view\r\n    returns (string memory, string memory, DiplomeStruct[] memory)\r\n  {\r\n    DiplomeStruct[] memory diplomeStructs2 = new DiplomeStruct[](\r\n      diplomes.length\r\n    );\r\n    for (uint256 i = 0; i < diplomes.length; i++) {\r\n      diplomeStructs2[i] = diplomes[i].structIt();\r\n    }\r\n    return (cin, university, diplomeStructs2);\r\n  }\r\n\r\n  function addDiplome(\r\n    string memory nom,\r\n    string memory niveau,\r\n    string memory ref\r\n  ) public {\r\n    diplomes.push(new Diplome(nom, niveau, ref));\r\n    DiplomeStruct[] memory diplomeStructs1 = new DiplomeStruct[](\r\n      diplomes.length\r\n    );\r\n    for (uint256 i = 0; i < diplomes.length; i++) {\r\n      diplomeStructs1[i] = diplomes[i].structIt();\r\n    }\r\n  }\r\n\r\n  function getDiplomeCount() public view returns (uint) {\r\n    return diplomes.length;\r\n  }\r\n\r\n  // function getDiplome(uint index) public view returns (uint256, uint, string memory) {\r\n  //   require(index < diplomes.length, \"Invalid index\");\r\n  //   Diplome diplome = diplomes[index];\r\n  //   return (diplome.id, diplome.niveau, diplome.ref);\r\n  // }\r\n}\r\n\r\ncontract SimpleStorage {\r\n  Student[] students;\r\n\r\n  constructor() {\r\n    Student student1 = new Student(\"UB101646\", \"um5\");\r\n    student1.addDiplome(\"Informatique\", \"deug\", \"0x35543223\");\r\n    student1.addDiplome(\"Informatique\", \"licence\", \"0x3534523\");\r\n    students.push(student1);\r\n\r\n    Student student2 = new Student(\"D73842\", \"msl\");\r\n    student2.addDiplome(\"arabic\", \"deug\", \"0x96443223\");\r\n    student2.addDiplome(\"arabic\", \"licence\", \"0x6435623\");\r\n    students.push(student2);\r\n  }\r\n\r\n  // function read() public view returns (string memory, string memory) {\r\n  //   require(students.length > 0, \"No students available\");\r\n  //   return students[0].getInformations();\r\n  // }\r\n\r\n  function getStudentCount() public view returns (uint) {\r\n    return students.length;\r\n  }\r\n\r\n  function getStudents() public view returns (StudentStruct[] memory) {\r\n    StudentStruct[] memory studentStructs = new StudentStruct[](\r\n      students.length\r\n    );\r\n\r\n    for (uint256 i = 0; i < students.length; i++) {\r\n      studentStructs[i] = students[i].structIt();\r\n    }\r\n    return studentStructs;\r\n  }\r\n\r\n  // function getStudent(uint flkj) public pure returns (Etudiant[] memory) {\r\n  //   Etudiant[] memory etudiants = new Etudiant[](1);\r\n  //   etudiants[0] = Etudiant(\"amimi\", \"soufiane\");\r\n  //   return etudiants;\r\n  // }\r\n\r\n  // function getStudent(\r\n  //   uint index\r\n  // ) public view returns (string memory, string memory, Diplome[] memory) {\r\n  //   require(index < students.length, \"Invalid index\");\r\n  //   Student student = students[index];\r\n  //   return student.getInformations();\r\n  // }\r\n\r\n  // function addDiplome(uint256 id, uint niveau, string memory ref) public {\r\n  //   student.addDiplome(id, niveau, ref);\r\n  // }\r\n\r\n  // function getDiplomeCount() public view returns (uint) {\r\n  //   return student.getDiplomeCount();\r\n  // }\r\n\r\n  // function getDiplome(\r\n  //   uint index\r\n  // ) public view returns (uint256, uint, string memory) {\r\n  //   return student.getDiplome(index);\r\n  // }\r\n}\r\n",
  "sourcePath": "C:\\Users\\soufi\\Desktop\\projets\\diploma-chain\\contract\\contracts\\SimpleStorage.sol",
  "compiler": {
    "name": "solc",
    "version": "0.8.0+commit.c7dfd78e.Emscripten.clang"
  },
  "schemaVersion": "3.4.14",
  "updatedAt": "2023-06-15T19:11:03.003Z",
  "devdoc": {
    "kind": "dev",
    "methods": {},
    "version": 1
  },
  "userdoc": {
    "kind": "user",
    "methods": {},
    "version": 1
  }
}