{
  "contractName": "SimpleStorage",
  "abi": [
    {
      "inputs": [],
      "stateMutability": "nonpayable",
      "type": "constructor"
    },
    {
      "inputs": [],
      "name": "getStudentCount",
      "outputs": [
        {
          "internalType": "uint256",
          "name": "",
          "type": "uint256"
        }
      ],
      "stateMutability": "view",
      "type": "function",
      "constant": true
    },
    {
      "inputs": [],
      "name": "getStudents",
      "outputs": [
        {
          "components": [
            {
              "internalType": "string",
              "name": "cin",
              "type": "string"
            },
            {
              "internalType": "string",
              "name": "university",
              "type": "string"
            },
            {
              "components": [
                {
                  "internalType": "string",
                  "name": "nom",
                  "type": "string"
                },
                {
                  "internalType": "string",
                  "name": "niveau",
                  "type": "string"
                },
                {
                  "internalType": "string",
                  "name": "ref",
                  "type": "string"
                }
              ],
              "internalType": "struct DiplomeStruct[]",
              "name": "diplomeStructs",
              "type": "tuple[]"
            }
          ],
          "internalType": "struct StudentStruct[]",
          "name": "",
          "type": "tuple[]"
        }
      ],
      "stateMutability": "view",
      "type": "function",
      "constant": true
    }
  ],
  "bytecode": "0x60806040523480156200001157600080fd5b50600060405162000022906200030a565b6200002d9062000630565b604051809103906000f0801580156200004a573d6000803e3d6000fd5b5090508073ffffffffffffffffffffffffffffffffffffffff1663c5c505ac6040518163ffffffff1660e01b81526004016200008690620006ea565b600060405180830381600087803b158015620000a157600080fd5b505af1158015620000b6573d6000803e3d6000fd5b505050508073ffffffffffffffffffffffffffffffffffffffff1663c5c505ac6040518163ffffffff1660e01b8152600401620000f3906200069e565b600060405180830381600087803b1580156200010e57600080fd5b505af115801562000123573d6000803e3d6000fd5b505050506000819080600181540180825580915050600190039060005260206000200160009091909190916101000a81548173ffffffffffffffffffffffffffffffffffffffff021916908373ffffffffffffffffffffffffffffffffffffffff16021790555060006040516200019a906200030a565b620001a59062000667565b604051809103906000f080158015620001c2573d6000803e3d6000fd5b5090508073ffffffffffffffffffffffffffffffffffffffff1663c5c505ac6040518163ffffffff1660e01b8152600401620001fe9062000782565b600060405180830381600087803b1580156200021957600080fd5b505af11580156200022e573d6000803e3d6000fd5b505050508073ffffffffffffffffffffffffffffffffffffffff1663c5c505ac6040518163ffffffff1660e01b81526004016200026b9062000736565b600060405180830381600087803b1580156200028657600080fd5b505af11580156200029b573d6000803e3d6000fd5b505050506000819080600181540180825580915050600190039060005260206000200160009091909190916101000a81548173ffffffffffffffffffffffffffffffffffffffff021916908373ffffffffffffffffffffffffffffffffffffffff1602179055505050620007df565b6122cb806200118683390190565b600062000327600883620007ce565b91507f55423130313634360000000000000000000000000000000000000000000000006000830152602082019050919050565b600062000369600783620007ce565b91507f6c6963656e6365000000000000000000000000000000000000000000000000006000830152602082019050919050565b6000620003ab600a83620007ce565b91507f30783335353433323233000000000000000000000000000000000000000000006000830152602082019050919050565b6000620003ed600983620007ce565b91507f30783335333435323300000000000000000000000000000000000000000000006000830152602082019050919050565b60006200042f600383620007ce565b91507f6d736c00000000000000000000000000000000000000000000000000000000006000830152602082019050919050565b600062000471600a83620007ce565b91507f30783936343433323233000000000000000000000000000000000000000000006000830152602082019050919050565b6000620004b3600383620007ce565b91507f756d3500000000000000000000000000000000000000000000000000000000006000830152602082019050919050565b6000620004f5600683620007ce565b91507f44373338343200000000000000000000000000000000000000000000000000006000830152602082019050919050565b600062000537600483620007ce565b91507f64657567000000000000000000000000000000000000000000000000000000006000830152602082019050919050565b600062000579600c83620007ce565b91507f496e666f726d61746971756500000000000000000000000000000000000000006000830152602082019050919050565b6000620005bb600983620007ce565b91507f30783634333536323300000000000000000000000000000000000000000000006000830152602082019050919050565b6000620005fd600683620007ce565b91507f61726162696300000000000000000000000000000000000000000000000000006000830152602082019050919050565b600060408201905081810360008301526200064b8162000318565b905081810360208301526200066081620004a4565b9050919050565b600060408201905081810360008301526200068281620004e6565b90508181036020830152620006978162000420565b9050919050565b60006060820190508181036000830152620006b9816200056a565b90508181036020830152620006ce816200035a565b90508181036040830152620006e381620003de565b9050919050565b6000606082019050818103600083015262000705816200056a565b905081810360208301526200071a8162000528565b905081810360408301526200072f816200039c565b9050919050565b600060608201905081810360008301526200075181620005ee565b9050818103602083015262000766816200035a565b905081810360408301526200077b81620005ac565b9050919050565b600060608201905081810360008301526200079d81620005ee565b90508181036020830152620007b28162000528565b90508181036040830152620007c78162000462565b9050919050565b600082825260208201905092915050565b61099780620007ef6000396000f3fe608060405234801561001057600080fd5b50600436106100365760003560e01c806341e0c4071461003b578063f1d064b314610059575b600080fd5b610043610077565b6040516100509190610736565b60405180910390f35b610061610083565b60405161006e9190610714565b60405180910390f35b60008080549050905090565b60606000808054905067ffffffffffffffff8111156100cb577f4e487b7100000000000000000000000000000000000000000000000000000000600052604160045260246000fd5b60405190808252806020026020018201604052801561010457816020015b6100f161025d565b8152602001906001900390816100e95790505b50905060005b6000805490508110156102555760008181548110610151577f4e487b7100000000000000000000000000000000000000000000000000000000600052603260045260246000fd5b9060005260206000200160009054906101000a900473ffffffffffffffffffffffffffffffffffffffff1673ffffffffffffffffffffffffffffffffffffffff1663f94e13736040518163ffffffff1660e01b815260040160006040518083038186803b1580156101c157600080fd5b505afa1580156101d5573d6000803e3d6000fd5b505050506040513d6000823e3d601f19601f820116820180604052508101906101fe91906104bd565b828281518110610237577f4e487b7100000000000000000000000000000000000000000000000000000000600052603260045260246000fd5b6020026020010181905250808061024d906108a9565b91505061010a565b508091505090565b60405180606001604052806060815260200160608152602001606081525090565b600061029161028c84610782565b610751565b9050808382526020820190508260005b858110156102d157815185016102b7888261036d565b8452602084019350602083019250506001810190506102a1565b5050509392505050565b60006102ee6102e9846107ae565b610751565b90508281526020810184848401111561030657600080fd5b610311848285610876565b509392505050565b600082601f83011261032a57600080fd5b815161033a84826020860161027e565b91505092915050565b600082601f83011261035457600080fd5b81516103648482602086016102db565b91505092915050565b60006060828403121561037f57600080fd5b6103896060610751565b9050600082015167ffffffffffffffff8111156103a557600080fd5b6103b184828501610343565b600083015250602082015167ffffffffffffffff8111156103d157600080fd5b6103dd84828501610343565b602083015250604082015167ffffffffffffffff8111156103fd57600080fd5b61040984828501610343565b60408301525092915050565b60006060828403121561042757600080fd5b6104316060610751565b9050600082015167ffffffffffffffff81111561044d57600080fd5b61045984828501610343565b600083015250602082015167ffffffffffffffff81111561047957600080fd5b61048584828501610343565b602083015250604082015167ffffffffffffffff8111156104a557600080fd5b6104b184828501610319565b60408301525092915050565b6000602082840312156104cf57600080fd5b600082015167ffffffffffffffff8111156104e957600080fd5b6104f584828501610415565b91505092915050565b600061050a8383610649565b905092915050565b600061051e83836106a7565b905092915050565b6000610531826107fe565b61053b8185610839565b93508360208202850161054d856107de565b8060005b85811015610589578484038952815161056a85826104fe565b94506105758361081f565b925060208a01995050600181019050610551565b50829750879550505050505092915050565b60006105a682610809565b6105b0818561084a565b9350836020820285016105c2856107ee565b8060005b858110156105fe57848403895281516105df8582610512565b94506105ea8361082c565b925060208a019950506001810190506105c6565b50829750879550505050505092915050565b600061061b82610814565b610625818561085b565b9350610635818560208601610876565b61063e81610950565b840191505092915050565b600060608301600083015184820360008601526106668282610610565b915050602083015184820360208601526106808282610610565b9150506040830151848203604086015261069a8282610610565b9150508091505092915050565b600060608301600083015184820360008601526106c48282610610565b915050602083015184820360208601526106de8282610610565b915050604083015184820360408601526106f88282610526565b9150508091505092915050565b61070e8161086c565b82525050565b6000602082019050818103600083015261072e818461059b565b905092915050565b600060208201905061074b6000830184610705565b92915050565b6000604051905081810181811067ffffffffffffffff8211171561077857610777610921565b5b8060405250919050565b600067ffffffffffffffff82111561079d5761079c610921565b5b602082029050602081019050919050565b600067ffffffffffffffff8211156107c9576107c8610921565b5b601f19601f8301169050602081019050919050565b6000819050602082019050919050565b6000819050602082019050919050565b600081519050919050565b600081519050919050565b600081519050919050565b6000602082019050919050565b6000602082019050919050565b600082825260208201905092915050565b600082825260208201905092915050565b600082825260208201905092915050565b6000819050919050565b60005b83811015610894578082015181840152602081019050610879565b838111156108a3576000848401525b50505050565b60006108b48261086c565b91507fffffffffffffffffffffffffffffffffffffffffffffffffffffffffffffffff8214156108e7576108e66108f2565b5b600182019050919050565b7f4e487b7100000000000000000000000000000000000000000000000000000000600052601160045260246000fd5b7f4e487b7100000000000000000000000000000000000000000000000000000000600052604160045260246000fd5b6000601f19601f830116905091905056fea2646970667358221220f647c2a03549afab55bfc9dd0c986601313d221424d37f7a0c0f89037fdfb2eb64736f6c6343000800003360806040523480156200001157600080fd5b50604051620022cb380380620022cb833981810160405281019062000037919062000193565b81600090805190602001906200004f92919062000071565b5080600190805190602001906200006892919062000071565b50505062000337565b8280546200007f90620002a3565b90600052602060002090601f016020900481019282620000a35760008555620000ef565b82601f10620000be57805160ff1916838001178555620000ef565b82800160010185558215620000ef579182015b82811115620000ee578251825591602001919060010190620000d1565b5b509050620000fe919062000102565b5090565b5b808211156200011d57600081600090555060010162000103565b5090565b60006200013862000132846200023a565b62000206565b9050828152602081018484840111156200015157600080fd5b6200015e8482856200026d565b509392505050565b600082601f8301126200017857600080fd5b81516200018a84826020860162000121565b91505092915050565b60008060408385031215620001a757600080fd5b600083015167ffffffffffffffff811115620001c257600080fd5b620001d08582860162000166565b925050602083015167ffffffffffffffff811115620001ee57600080fd5b620001fc8582860162000166565b9150509250929050565b6000604051905081810181811067ffffffffffffffff8211171562000230576200022f62000308565b5b8060405250919050565b600067ffffffffffffffff82111562000258576200025762000308565b5b601f19601f8301169050602081019050919050565b60005b838110156200028d57808201518184015260208101905062000270565b838111156200029d576000848401525b50505050565b60006002820490506001821680620002bc57607f821691505b60208210811415620002d357620002d2620002d9565b5b50919050565b7f4e487b7100000000000000000000000000000000000000000000000000000000600052602260045260246000fd5b7f4e487b7100000000000000000000000000000000000000000000000000000000600052604160045260246000fd5b611f8480620003476000396000f3fe60806040523480156200001157600080fd5b5060043610620000885760003560e01c8063768ceb9a1162000063578063768ceb9a14620000f5578063ae12894e146200012b578063c5c505ac146200014d578063f94e1373146200016d5762000088565b806319354dea146200008d5780633c5e310b14620000af5780634a77bb9b14620000d3575b600080fd5b620000976200018f565b604051620000a691906200118f565b60405180910390f35b620000b962000225565b604051620000ca93929190620011b3565b60405180910390f35b620000dd62000544565b604051620000ec91906200127b565b60405180910390f35b6200011360048036038101906200010d919062000ec2565b62000551565b60405162000122919062001172565b60405180910390f35b6200013562000591565b6040516200014491906200118f565b60405180910390f35b6200016b600480360381019062000165919062000ddc565b62000627565b005b62000177620008ad565b60405162000186919062001257565b60405180910390f35b600080546200019e906200140d565b80601f0160208091040260200160405190810160405280929190818152602001828054620001cc906200140d565b80156200021d5780601f10620001f1576101008083540402835291602001916200021d565b820191906000526020600020905b815481529060010190602001808311620001ff57829003601f168201915b505050505081565b6060806060600060028054905067ffffffffffffffff81111562000272577f4e487b7100000000000000000000000000000000000000000000000000000000600052604160045260246000fd5b604051908082528060200260200182016040528015620002af57816020015b6200029b62000bdd565b815260200190600190039081620002915790505b50905060005b6002805490508110156200040a5760028181548110620002fe577f4e487b7100000000000000000000000000000000000000000000000000000000600052603260045260246000fd5b9060005260206000200160009054906101000a900473ffffffffffffffffffffffffffffffffffffffff1673ffffffffffffffffffffffffffffffffffffffff1663f94e13736040518163ffffffff1660e01b815260040160006040518083038186803b1580156200036f57600080fd5b505afa15801562000384573d6000803e3d6000fd5b505050506040513d6000823e3d601f19601f82011682018060405250810190620003af919062000e7d565b828281518110620003e9577f4e487b7100000000000000000000000000000000000000000000000000000000600052603260045260246000fd5b60200260200101819052508080620004019062001443565b915050620002b5565b5060006001828280546200041e906200140d565b80601f01602080910402602001604051908101604052809291908181526020018280546200044c906200140d565b80156200049d5780601f1062000471576101008083540402835291602001916200049d565b820191906000526020600020905b8154815290600101906020018083116200047f57829003601f168201915b50505050509250818054620004b2906200140d565b80601f0160208091040260200160405190810160405280929190818152602001828054620004e0906200140d565b8015620005315780601f10620005055761010080835404028352916020019162000531565b820191906000526020600020905b8154815290600101906020018083116200051357829003601f168201915b5050505050915093509350935050909192565b6000600280549050905090565b600281815481106200056257600080fd5b906000526020600020016000915054906101000a900473ffffffffffffffffffffffffffffffffffffffff1681565b60018054620005a0906200140d565b80601f0160208091040260200160405190810160405280929190818152602001828054620005ce906200140d565b80156200061f5780601f10620005f3576101008083540402835291602001916200061f565b820191906000526020600020905b8154815290600101906020018083116200060157829003601f168201915b505050505081565b60028383836040516200063a9062000bfe565b620006489392919062001205565b604051809103906000f08015801562000665573d6000803e3d6000fd5b509080600181540180825580915050600190039060005260206000200160009091909190916101000a81548173ffffffffffffffffffffffffffffffffffffffff021916908373ffffffffffffffffffffffffffffffffffffffff160217905550600060028054905067ffffffffffffffff8111156200070e577f4e487b7100000000000000000000000000000000000000000000000000000000600052604160045260246000fd5b6040519080825280602002602001820160405280156200074b57816020015b6200073762000bdd565b8152602001906001900390816200072d5790505b50905060005b600280549050811015620008a657600281815481106200079a577f4e487b7100000000000000000000000000000000000000000000000000000000600052603260045260246000fd5b9060005260206000200160009054906101000a900473ffffffffffffffffffffffffffffffffffffffff1673ffffffffffffffffffffffffffffffffffffffff1663f94e13736040518163ffffffff1660e01b815260040160006040518083038186803b1580156200080b57600080fd5b505afa15801562000820573d6000803e3d6000fd5b505050506040513d6000823e3d601f19601f820116820180604052508101906200084b919062000e7d565b82828151811062000885577f4e487b7100000000000000000000000000000000000000000000000000000000600052603260045260246000fd5b602002602001018190525080806200089d9062001443565b91505062000751565b5050505050565b620008b762000c0c565b600060028054905067ffffffffffffffff811115620008ff577f4e487b7100000000000000000000000000000000000000000000000000000000600052604160045260246000fd5b6040519080825280602002602001820160405280156200093c57816020015b6200092862000bdd565b8152602001906001900390816200091e5790505b50905060005b60028054905081101562000a9757600281815481106200098b577f4e487b7100000000000000000000000000000000000000000000000000000000600052603260045260246000fd5b9060005260206000200160009054906101000a900473ffffffffffffffffffffffffffffffffffffffff1673ffffffffffffffffffffffffffffffffffffffff1663f94e13736040518163ffffffff1660e01b815260040160006040518083038186803b158015620009fc57600080fd5b505afa15801562000a11573d6000803e3d6000fd5b505050506040513d6000823e3d601f19601f8201168201806040525081019062000a3c919062000e7d565b82828151811062000a76577f4e487b7100000000000000000000000000000000000000000000000000000000600052603260045260246000fd5b6020026020010181905250808062000a8e9062001443565b91505062000942565b5060405180606001604052806000805462000ab2906200140d565b80601f016020809104026020016040519081016040528092919081815260200182805462000ae0906200140d565b801562000b315780601f1062000b055761010080835404028352916020019162000b31565b820191906000526020600020905b81548152906001019060200180831162000b1357829003601f168201915b505050505081526020016001805462000b4a906200140d565b80601f016020809104026020016040519081016040528092919081815260200182805462000b78906200140d565b801562000bc95780601f1062000b9d5761010080835404028352916020019162000bc9565b820191906000526020600020905b81548152906001019060200180831162000bab57829003601f168201915b505050505081526020018281525091505090565b60405180606001604052806060815260200160608152602001606081525090565b610a05806200154a83390190565b60405180606001604052806060815260200160608152602001606081525090565b600062000c4462000c3e84620012cc565b62001298565b90508281526020810184848401111562000c5d57600080fd5b62000c6a848285620013c8565b509392505050565b600062000c8962000c8384620012cc565b62001298565b90508281526020810184848401111562000ca257600080fd5b62000caf848285620013d7565b509392505050565b600082601f83011262000cc957600080fd5b813562000cdb84826020860162000c2d565b91505092915050565b600082601f83011262000cf657600080fd5b815162000d0884826020860162000c72565b91505092915050565b60006060828403121562000d2457600080fd5b62000d30606062001298565b9050600082015167ffffffffffffffff81111562000d4d57600080fd5b62000d5b8482850162000ce4565b600083015250602082015167ffffffffffffffff81111562000d7c57600080fd5b62000d8a8482850162000ce4565b602083015250604082015167ffffffffffffffff81111562000dab57600080fd5b62000db98482850162000ce4565b60408301525092915050565b60008135905062000dd6816200152f565b92915050565b60008060006060848603121562000df257600080fd5b600084013567ffffffffffffffff81111562000e0d57600080fd5b62000e1b8682870162000cb7565b935050602084013567ffffffffffffffff81111562000e3957600080fd5b62000e478682870162000cb7565b925050604084013567ffffffffffffffff81111562000e6557600080fd5b62000e738682870162000cb7565b9150509250925092565b60006020828403121562000e9057600080fd5b600082015167ffffffffffffffff81111562000eab57600080fd5b62000eb98482850162000d11565b91505092915050565b60006020828403121562000ed557600080fd5b600062000ee58482850162000dc5565b91505092915050565b600062000efc838362001099565b905092915050565b600062000f11826200130f565b62000f1d818562001332565b93508360208202850162000f3185620012ff565b8060005b8581101562000f73578484038952815162000f51858262000eee565b945062000f5e8362001325565b925060208a0199505060018101905062000f35565b50829750879550505050505092915050565b600062000f92826200130f565b62000f9e818562001343565b93508360208202850162000fb285620012ff565b8060005b8581101562000ff4578484038952815162000fd2858262000eee565b945062000fdf8362001325565b925060208a0199505060018101905062000fb6565b50829750879550505050505092915050565b6200101181620013a0565b82525050565b600062001024826200131a565b62001030818562001354565b935062001042818560208601620013d7565b6200104d816200151e565b840191505092915050565b600062001065826200131a565b62001071818562001365565b935062001083818560208601620013d7565b6200108e816200151e565b840191505092915050565b60006060830160008301518482036000860152620010b8828262001017565b91505060208301518482036020860152620010d4828262001017565b91505060408301518482036040860152620010f0828262001017565b9150508091505092915050565b600060608301600083015184820360008601526200111c828262001017565b9150506020830151848203602086015262001138828262001017565b9150506040830151848203604086015262001154828262000f04565b9150508091505092915050565b6200116c8162001396565b82525050565b600060208201905062001189600083018462001006565b92915050565b60006020820190508181036000830152620011ab818462001058565b905092915050565b60006060820190508181036000830152620011cf818662001058565b90508181036020830152620011e5818562001058565b90508181036040830152620011fb818462000f85565b9050949350505050565b6000606082019050818103600083015262001221818662001058565b9050818103602083015262001237818562001058565b905081810360408301526200124d818462001058565b9050949350505050565b60006020820190508181036000830152620012738184620010fd565b905092915050565b600060208201905062001292600083018462001161565b92915050565b6000604051905081810181811067ffffffffffffffff82111715620012c257620012c1620014ef565b5b8060405250919050565b600067ffffffffffffffff821115620012ea57620012e9620014ef565b5b601f19601f8301169050602081019050919050565b6000819050602082019050919050565b600081519050919050565b600081519050919050565b6000602082019050919050565b600082825260208201905092915050565b600082825260208201905092915050565b600082825260208201905092915050565b600082825260208201905092915050565b600073ffffffffffffffffffffffffffffffffffffffff82169050919050565b6000819050919050565b6000620013ad82620013b4565b9050919050565b6000620013c18262001376565b9050919050565b82818337600083830152505050565b60005b83811015620013f7578082015181840152602081019050620013da565b8381111562001407576000848401525b50505050565b600060028204905060018216806200142657607f821691505b602082108114156200143d576200143c620014c0565b5b50919050565b6000620014508262001396565b91507fffffffffffffffffffffffffffffffffffffffffffffffffffffffffffffffff82141562001486576200148562001491565b5b600182019050919050565b7f4e487b7100000000000000000000000000000000000000000000000000000000600052601160045260246000fd5b7f4e487b7100000000000000000000000000000000000000000000000000000000600052602260045260246000fd5b7f4e487b7100000000000000000000000000000000000000000000000000000000600052604160045260246000fd5b6000601f19601f8301169050919050565b6200153a8162001396565b81146200154657600080fd5b5056fe60806040523480156200001157600080fd5b5060405162000a0538038062000a058339818101604052810190620000379190620001ad565b82600090805190602001906200004f9291906200008b565b508160019080519060200190620000689291906200008b565b508060029080519060200190620000819291906200008b565b505050506200037f565b8280546200009990620002eb565b90600052602060002090601f016020900481019282620000bd576000855562000109565b82601f10620000d857805160ff191683800117855562000109565b8280016001018555821562000109579182015b8281111562000108578251825591602001919060010190620000eb565b5b5090506200011891906200011c565b5090565b5b80821115620001375760008160009055506001016200011d565b5090565b6000620001526200014c8462000282565b6200024e565b9050828152602081018484840111156200016b57600080fd5b62000178848285620002b5565b509392505050565b600082601f8301126200019257600080fd5b8151620001a48482602086016200013b565b91505092915050565b600080600060608486031215620001c357600080fd5b600084015167ffffffffffffffff811115620001de57600080fd5b620001ec8682870162000180565b935050602084015167ffffffffffffffff8111156200020a57600080fd5b620002188682870162000180565b925050604084015167ffffffffffffffff8111156200023657600080fd5b620002448682870162000180565b9150509250925092565b6000604051905081810181811067ffffffffffffffff8211171562000278576200027762000350565b5b8060405250919050565b600067ffffffffffffffff821115620002a0576200029f62000350565b5b601f19601f8301169050602081019050919050565b60005b83811015620002d5578082015181840152602081019050620002b8565b83811115620002e5576000848401525b50505050565b600060028204905060018216806200030457607f821691505b602082108114156200031b576200031a62000321565b5b50919050565b7f4e487b7100000000000000000000000000000000000000000000000000000000600052602260045260246000fd5b7f4e487b7100000000000000000000000000000000000000000000000000000000600052604160045260246000fd5b610676806200038f6000396000f3fe608060405234801561001057600080fd5b506004361061004c5760003560e01c806321a78f68146100515780636bd1deab1461006f578063cceae5611461008d578063f94e1373146100ab575b600080fd5b6100596100c9565b604051610066919061052a565b60405180910390f35b610077610157565b604051610084919061052a565b60405180910390f35b6100956101e5565b6040516100a2919061052a565b60405180910390f35b6100b3610273565b6040516100c0919061054c565b60405180910390f35b600280546100d6906105ce565b80601f0160208091040260200160405190810160405280929190818152602001828054610102906105ce565b801561014f5780601f106101245761010080835404028352916020019161014f565b820191906000526020600020905b81548152906001019060200180831161013257829003601f168201915b505050505081565b60018054610164906105ce565b80601f0160208091040260200160405190810160405280929190818152602001828054610190906105ce565b80156101dd5780601f106101b2576101008083540402835291602001916101dd565b820191906000526020600020905b8154815290600101906020018083116101c057829003601f168201915b505050505081565b600080546101f2906105ce565b80601f016020809104026020016040519081016040528092919081815260200182805461021e906105ce565b801561026b5780601f106102405761010080835404028352916020019161026b565b820191906000526020600020905b81548152906001019060200180831161024e57829003601f168201915b505050505081565b61027b610439565b604051806060016040528060008054610293906105ce565b80601f01602080910402602001604051908101604052809291908181526020018280546102bf906105ce565b801561030c5780601f106102e15761010080835404028352916020019161030c565b820191906000526020600020905b8154815290600101906020018083116102ef57829003601f168201915b5050505050815260200160018054610323906105ce565b80601f016020809104026020016040519081016040528092919081815260200182805461034f906105ce565b801561039c5780601f106103715761010080835404028352916020019161039c565b820191906000526020600020905b81548152906001019060200180831161037f57829003601f168201915b50505050508152602001600280546103b3906105ce565b80601f01602080910402602001604051908101604052809291908181526020018280546103df906105ce565b801561042c5780601f106104015761010080835404028352916020019161042c565b820191906000526020600020905b81548152906001019060200180831161040f57829003601f168201915b5050505050815250905090565b60405180606001604052806060815260200160608152602001606081525090565b60006104658261056e565b61046f8185610579565b935061047f81856020860161059b565b6104888161062f565b840191505092915050565b600061049e8261056e565b6104a8818561058a565b93506104b881856020860161059b565b6104c18161062f565b840191505092915050565b600060608301600083015184820360008601526104e9828261045a565b91505060208301518482036020860152610503828261045a565b9150506040830151848203604086015261051d828261045a565b9150508091505092915050565b600060208201905081810360008301526105448184610493565b905092915050565b6000602082019050818103600083015261056681846104cc565b905092915050565b600081519050919050565b600082825260208201905092915050565b600082825260208201905092915050565b60005b838110156105b957808201518184015260208101905061059e565b838111156105c8576000848401525b50505050565b600060028204905060018216806105e657607f821691505b602082108114156105fa576105f9610600565b5b50919050565b7f4e487b7100000000000000000000000000000000000000000000000000000000600052602260045260246000fd5b6000601f19601f830116905091905056fea264697066735822122059f24052266d4ad2077f88866392eaef81f9652051aa8f628965f68589ca565864736f6c63430008000033a2646970667358221220c2bc96e52a24cae69a9ebbc3ee056a7fe7bbf817e7a0ba7c2c294ec72b83e99c64736f6c63430008000033",
  "immutableReferences": {},
  "source": "// SPDX-License-Identifier: MIT\r\npragma solidity ^0.8.0;\r\n\r\nstruct DiplomeStruct {\r\n  string nom;\r\n  string niveau;\r\n  string ref;\r\n}\r\n\r\nstruct StudentStruct {\r\n  string cin;\r\n  string university;\r\n  DiplomeStruct[] diplomeStructs;\r\n}\r\n\r\ncontract Diplome {\r\n  string public nom;\r\n  string public niveau;\r\n  string public ref;\r\n\r\n  constructor(string memory _nom, string memory _niveau, string memory _ref) {\r\n    nom = _nom;\r\n    niveau = _niveau;\r\n    ref = _ref;\r\n  }\r\n\r\n  function structIt() public view returns (DiplomeStruct memory) {\r\n    return DiplomeStruct(nom, niveau, ref);\r\n  }\r\n}\r\n\r\ncontract Student {\r\n  string public cin;\r\n  string public university;\r\n  Diplome[] public diplomes;\r\n\r\n  constructor(string memory _cin, string memory _university) {\r\n    cin = _cin;\r\n    university = _university;\r\n  }\r\n\r\n  function structIt() public view returns (StudentStruct memory) {\r\n    DiplomeStruct[] memory diplomeStructs1 = new DiplomeStruct[](\r\n      diplomes.length\r\n    );\r\n    for (uint256 i = 0; i < diplomes.length; i++) {\r\n      diplomeStructs1[i] = diplomes[i].structIt();\r\n    }\r\n    return StudentStruct(cin, university, diplomeStructs1);\r\n  }\r\n\r\n  function getInformations()\r\n    public\r\n    view\r\n    returns (string memory, string memory, DiplomeStruct[] memory)\r\n  {\r\n    DiplomeStruct[] memory diplomeStructs2 = new DiplomeStruct[](\r\n      diplomes.length\r\n    );\r\n    for (uint256 i = 0; i < diplomes.length; i++) {\r\n      diplomeStructs2[i] = diplomes[i].structIt();\r\n    }\r\n    return (cin, university, diplomeStructs2);\r\n  }\r\n\r\n  function addDiplome(\r\n    string memory nom,\r\n    string memory niveau,\r\n    string memory ref\r\n  ) public {\r\n    diplomes.push(new Diplome(nom, niveau, ref));\r\n    DiplomeStruct[] memory diplomeStructs1 = new DiplomeStruct[](\r\n      diplomes.length\r\n    );\r\n    for (uint256 i = 0; i < diplomes.length; i++) {\r\n      diplomeStructs1[i] = diplomes[i].structIt();\r\n    }\r\n  }\r\n\r\n  function getDiplomeCount() public view returns (uint) {\r\n    return diplomes.length;\r\n  }\r\n\r\n  // function getDiplome(uint index) public view returns (uint256, uint, string memory) {\r\n  //   require(index < diplomes.length, \"Invalid index\");\r\n  //   Diplome diplome = diplomes[index];\r\n  //   return (diplome.id, diplome.niveau, diplome.ref);\r\n  // }\r\n}\r\n\r\ncontract SimpleStorage {\r\n  Student[] students;\r\n\r\n  constructor() {\r\n    Student student1 = new Student(\"UB101646\", \"um5\");\r\n    student1.addDiplome(\"Informatique\", \"deug\", \"0x35543223\");\r\n    student1.addDiplome(\"Informatique\", \"licence\", \"0x3534523\");\r\n    students.push(student1);\r\n\r\n    Student student2 = new Student(\"D73842\", \"msl\");\r\n    student2.addDiplome(\"arabic\", \"deug\", \"0x96443223\");\r\n    student2.addDiplome(\"arabic\", \"licence\", \"0x6435623\");\r\n    students.push(student2);\r\n  }\r\n\r\n  // function read() public view returns (string memory, string memory) {\r\n  //   require(students.length > 0, \"No students available\");\r\n  //   return students[0].getInformations();\r\n  // }\r\n\r\n  function getStudentCount() public view returns (uint) {\r\n    return students.length;\r\n  }\r\n\r\n  function getStudents() public view returns (StudentStruct[] memory) {\r\n    StudentStruct[] memory studentStructs = new StudentStruct[](\r\n      students.length\r\n    );\r\n\r\n    for (uint256 i = 0; i < students.length; i++) {\r\n      studentStructs[i] = students[i].structIt();\r\n    }\r\n    return studentStructs;\r\n  }\r\n\r\n  // function getStudent(uint flkj) public pure returns (Etudiant[] memory) {\r\n  //   Etudiant[] memory etudiants = new Etudiant[](1);\r\n  //   etudiants[0] = Etudiant(\"amimi\", \"soufiane\");\r\n  //   return etudiants;\r\n  // }\r\n\r\n  // function getStudent(\r\n  //   uint index\r\n  // ) public view returns (string memory, string memory, Diplome[] memory) {\r\n  //   require(index < students.length, \"Invalid index\");\r\n  //   Student student = students[index];\r\n  //   return student.getInformations();\r\n  // }\r\n\r\n  // function addDiplome(uint256 id, uint niveau, string memory ref) public {\r\n  //   student.addDiplome(id, niveau, ref);\r\n  // }\r\n\r\n  // function getDiplomeCount() public view returns (uint) {\r\n  //   return student.getDiplomeCount();\r\n  // }\r\n\r\n  // function getDiplome(\r\n  //   uint index\r\n  // ) public view returns (uint256, uint, string memory) {\r\n  //   return student.getDiplome(index);\r\n  // }\r\n}\r\n",
  "sourcePath": "C:\\Users\\soufi\\Desktop\\projets\\diploma-chain\\contract\\contracts\\SimpleStorage.sol",
  "compiler": {
    "name": "solc",
    "version": "0.8.0+commit.c7dfd78e.Emscripten.clang"
  },
  "schemaVersion": "3.4.14",
  "updatedAt": "2023-06-15T19:12:18.864Z",
  "networkType": "ethereum",
  "devdoc": {
    "kind": "dev",
    "methods": {},
    "version": 1
  },
  "userdoc": {
    "kind": "user",
    "methods": {},
    "version": 1
  }
}