{
  "contractName": "SimpleStorage",
  "abi": [
    {
      "inputs": [],
      "name": "diplomeCount",
      "outputs": [
        {
          "internalType": "uint256",
          "name": "",
          "type": "uint256"
        }
      ],
      "stateMutability": "view",
      "type": "function",
      "constant": true
    },
    {
      "inputs": [
        {
          "internalType": "uint256",
          "name": "",
          "type": "uint256"
        }
      ],
      "name": "diplomes",
      "outputs": [
        {
          "internalType": "string",
          "name": "cin",
          "type": "string"
        },
        {
          "internalType": "string",
          "name": "niveauRef",
          "type": "string"
        }
      ],
      "stateMutability": "view",
      "type": "function",
      "constant": true
    },
    {
      "inputs": [
        {
          "internalType": "string",
          "name": "_cin",
          "type": "string"
        },
        {
          "internalType": "string",
          "name": "_niveauRef",
          "type": "string"
        }
      ],
      "name": "addDiplome",
      "outputs": [],
      "stateMutability": "nonpayable",
      "type": "function"
    }
  ],
  "bytecode": "0x60806040526000805534801561001457600080fd5b506106ea806100246000396000f3fe608060405234801561001057600080fd5b50600436106100415760003560e01c8063266650e314610046578063768ceb9a146100645780637fff5cda14610095575b600080fd5b61004e6100b1565b60405161005b91906104a0565b60405180910390f35b61007e600480360381019061007991906103f8565b6100b7565b60405161008c929190610469565b60405180910390f35b6100af60048036038101906100aa919061038c565b6101eb565b005b60005481565b60016020528060005260406000206000915090508060000180546100da90610584565b80601f016020809104026020016040519081016040528092919081815260200182805461010690610584565b80156101535780601f1061012857610100808354040283529160200191610153565b820191906000526020600020905b81548152906001019060200180831161013657829003601f168201915b50505050509080600101805461016890610584565b80601f016020809104026020016040519081016040528092919081815260200182805461019490610584565b80156101e15780601f106101b6576101008083540402835291602001916101e1565b820191906000526020600020905b8154815290600101906020018083116101c457829003601f168201915b5050505050905082565b6040518060400160405280838152602001828152506001600080548152602001908152602001600020600082015181600001908051906020019061023092919061026c565b50602082015181600101908051906020019061024d92919061026c565b50905050600080815480929190610263906105b6565b91905055505050565b82805461027890610584565b90600052602060002090601f01602090048101928261029a57600085556102e1565b82601f106102b357805160ff19168380011785556102e1565b828001600101855582156102e1579182015b828111156102e05782518255916020019190600101906102c5565b5b5090506102ee91906102f2565b5090565b5b8082111561030b5760008160009055506001016102f3565b5090565b600061032261031d846104ec565b6104bb565b90508281526020810184848401111561033a57600080fd5b610345848285610542565b509392505050565b600082601f83011261035e57600080fd5b813561036e84826020860161030f565b91505092915050565b6000813590506103868161069d565b92915050565b6000806040838503121561039f57600080fd5b600083013567ffffffffffffffff8111156103b957600080fd5b6103c58582860161034d565b925050602083013567ffffffffffffffff8111156103e257600080fd5b6103ee8582860161034d565b9150509250929050565b60006020828403121561040a57600080fd5b600061041884828501610377565b91505092915050565b600061042c8261051c565b6104368185610527565b9350610446818560208601610551565b61044f8161068c565b840191505092915050565b61046381610538565b82525050565b600060408201905081810360008301526104838185610421565b905081810360208301526104978184610421565b90509392505050565b60006020820190506104b5600083018461045a565b92915050565b6000604051905081810181811067ffffffffffffffff821117156104e2576104e161065d565b5b8060405250919050565b600067ffffffffffffffff8211156105075761050661065d565b5b601f19601f8301169050602081019050919050565b600081519050919050565b600082825260208201905092915050565b6000819050919050565b82818337600083830152505050565b60005b8381101561056f578082015181840152602081019050610554565b8381111561057e576000848401525b50505050565b6000600282049050600182168061059c57607f821691505b602082108114156105b0576105af61062e565b5b50919050565b60006105c182610538565b91507fffffffffffffffffffffffffffffffffffffffffffffffffffffffffffffffff8214156105f4576105f36105ff565b5b600182019050919050565b7f4e487b7100000000000000000000000000000000000000000000000000000000600052601160045260246000fd5b7f4e487b7100000000000000000000000000000000000000000000000000000000600052602260045260246000fd5b7f4e487b7100000000000000000000000000000000000000000000000000000000600052604160045260246000fd5b6000601f19601f8301169050919050565b6106a681610538565b81146106b157600080fd5b5056fea2646970667358221220da7a51879bace8b7faae9d66daace7cfc0bf505592c339d0d496367db0cd3d5b64736f6c63430008000033",
  "immutableReferences": {},
  "source": "// SPDX-License-Identifier: MIT\r\npragma solidity ^0.8.0;\r\nstruct Diplome {\r\n    string cin;\r\n    string niveauRef;\r\n}\r\n\r\ncontract SimpleStorage {\r\n    uint public diplomeCount = 0;\r\n    mapping(uint => Diplome) public diplomes;\r\n\r\n    function addDiplome(string memory _cin, string memory _niveauRef) public {\r\n        diplomes[diplomeCount] = Diplome(_cin, _niveauRef);\r\n        diplomeCount++;\r\n    }\r\n}\r\n",
  "sourcePath": "C:\\Users\\soufi\\Desktop\\projets\\diploma-chain\\contract\\contracts\\SimpleStorage.sol",
  "compiler": {
    "name": "solc",
    "version": "0.8.0+commit.c7dfd78e.Emscripten.clang"
  },
  "schemaVersion": "3.4.14",
  "updatedAt": "2023-06-16T18:28:50.531Z",
  "networkType": "ethereum",
  "devdoc": {
    "kind": "dev",
    "methods": {},
    "version": 1
  },
  "userdoc": {
    "kind": "user",
    "methods": {},
    "version": 1
  }
}